:020000040000FA
:1000000003018316003086008500831206309000BD
:100010000430910019309300FF3092000301372023
:1000200085001008532086000301860010085F2019
:100030008600030186000301392085001108532042
:1000400086000301860011085F20860003018600F8
:10005000920B0E28930B0E28910A5F20940014181F
:10006000362819309300FF3092000E286300820773
:100070000234820704348207E034F034E034303450
:10008000B0346034F034D0346034F034003482075B
:1000900007340F3401340F340734073403340B347E
:1000A00001340D3400348207E034F034E03430346D
:1000B000B0346034F034D0346034F034003482072B
:1000C00006340E3400340E340634063402340A3456
:0600D00000340C34013481
:0400D60000340034BE
:00000001FF
